{
  "contractName": "Storage",
  "abi": [
    {
      "constant": true,
      "inputs": [],
      "name": "_initialized",
      "outputs": [
        {
          "internalType": "bool",
          "name": "",
          "type": "bool"
        }
      ],
      "payable": false,
      "stateMutability": "view",
      "type": "function"
    },
    {
      "constant": true,
      "inputs": [],
      "name": "owner",
      "outputs": [
        {
          "internalType": "address",
          "name": "",
          "type": "address"
        }
      ],
      "payable": false,
      "stateMutability": "view",
      "type": "function"
    }
  ],
  "bytecode": "0x608060405234801561001057600080fd5b5061010d806100206000396000f3fe6080604052348015600f57600080fd5b506004361060325760003560e01c80633072cf601460375780638da5cb5b146057575b600080fd5b603d609f565b604051808215151515815260200191505060405180910390f35b605d60b2565b604051808273ffffffffffffffffffffffffffffffffffffffff1673ffffffffffffffffffffffffffffffffffffffff16815260200191505060405180910390f35b600560149054906101000a900460ff1681565b600560009054906101000a900473ffffffffffffffffffffffffffffffffffffffff168156fea265627a7a723158208c6af5d6eed57e7bf60e6635cb9cd4265b14e61091cc5cf66331422ba0bf8a0164736f6c63430005100032",
  "source": "pragma solidity 0.5.16;\n\ncontract Storage {\n  mapping(string => uint256) _uintStorage;\n  mapping (string => address) _addressStorage;\n  mapping (string => bool) _boolStorage;\n  mapping (string => string) _stringStorage;\n  mapping (string => bytes4) _bytesStorage;\n\n  address public owner;\n  bool public _initialized;\n\n\n}\n",
  "sourcePath": "/Users/margaritagyorgiev/Desktop/IOT/Ethereum course advanced/proxyContract/contracts/Storage.sol",
  "compiler": {
    "name": "solc",
    "version": "0.5.16+commit.9c3226ce.Emscripten.clang"
  },
  "schemaVersion": "3.3.4",
  "updatedAt": "2021-05-05T22:11:10.820Z",
  "devdoc": {
    "methods": {}
  },
  "userdoc": {
    "methods": {}
  }
}